:020000040800F2
:100000003005002001010008EF1400085912000813
:10001000ED14000829020008CB17000800000000BA
:10002000000000000000000000000000F3140008C1
:100030002B02000800000000F1140008F51400086D
:100040001B0100081B0100081B0100081B01000820
:100050001B0100081B0100081B0100081B01000810
:100060001B0100081B0100081B0100081B01000800
:100070001B0100081B0100081B0100081B010008F0
:100080001B0100081B0100081B0100081B010008E0
:100090001B0100081B0100081B0100081B010008D0
:1000A0001B0100081B0100081B0100081B010008C0
:1000B0001B0100081B0100081B0100081B010008B0
:1000C0001B0100081B0100081B0100081B010008A0
:1000D0001B0100081B0100081B0100081B01000890
:1000E0001B0100081B0100081B010008DFF80CD0F1
:1000F00000F02AF8004800470D18000830050020DD
:100100000648804706480047FEE7FEE7FEE7FEE7B1
:10011000FEE7FEE7FEE7FEE7FEE7FEE74D15000817
:10012000ED000008D2B201E000F8012B491EFBD21D
:1001300070470022F6E710B513460A4604461946F2
:10014000FFF7F0FF204610BD064C074D06E0E068C3
:1001500040F0010394E8070098471034AC42F6D30E
:10016000FFF7C8FFB01C0008D01C000870B504469B
:1001700000688168C943C9071CD1816821F0010169
:10018000816000F0F7FA05460FE000BF00F0F2FAD8
:10019000401B022809D9A06A40F01000A062E06A62
:1001A00040F00100E062012070BD20688068C0431B
:1001B000C007EBD0002070BDF8B5002604460096BD
:1001C00000688168C943C90728D0816841F00101EE
:1001D0008160134813490068B0FBF1F000E0401E55
:1001E00000900028FBD100F0C5FA054611E000BFE1
:1001F00000F0C0FA401B02280BD9A06A40F01000A2
:10020000A062E06A40F00100E06284F8246001200E
:10021000F8BD20688068C043C007E9D10020F8BD60
:100220003800002040420F00FEE77047F8B5002478
:10023000009490F824202546012A12D0012280F84B
:1002400024204A681F23072A0DD20668776B521EA6
:1002500002EB820293409F430B6893401F437763F6
:1002600019E00220F8BD06680D2A0AD2376BD21FAA
:1002700002EB820293409F430B6893401F43376316
:1002800009E0F76A0D3A02EB820293409F430B6844
:1002900093401F43F7620A68072306680A2A0AD3B5
:1002A000F7680A3A02EB420293409F438B689340FF
:1002B0001F43F76008E0376902EB420293409F4317
:1002C0008B6893401F4337610A68102A01D0112AB6
:1002D00020D1124B02689A4217D193681B0219D49D
:1002E000936843F4000393600968102912D10C4904
:1002F0000C4A0968B1FBF2F101EB8101490000E011
:10030000491E00910029FBD104E0816A41F02001DF
:100310008162012480F824502046F8BD0024014069
:100320003800002040420F002DE9F0414FF0000757
:1003300004003D467ED0A06A002628B9E66284F813
:100340002460204600F07EF82046FFF70FFFA16AE8
:10035000C90600D420B1A06A40F01000A06269E094
:10036000A16A21F4885141F00201A1626268E16949
:10037000237B0A4347EA43010A43A1684FF480778D
:10038000B94209D0012907D05FF0000194F814C0E8
:10039000BCF1010F02D00AE03946F7E7F3B1A36AD6
:1003A00043F02003A362E36A43F00103E36223689E
:1003B000D3F804C02CF4694C4CEA010CC3F804C017
:1003C00021688B68DFF870C003EA0C0313438B606D
:1003D000A168B9420BD0012909D00CE0DFF85CC05C
:1003E000A3690CEB43330B4343F40061DFE7218A3D
:1003F0000D05A5F580152168CB6A23F470032B4306
:10040000CB62216889680E4B1940914208D1E6629F
:10041000A16A21F0020141F00101A162BDE8F08171
:10042000A06A20F0020040F01000A062E06A40F0F4
:100430000100E0620120F1E7FDF7E1FF00E0FFFFCE
:10044000FE0E1FFF00B585B00021009101910291C1
:10045000039100680E49884218D10E48816941F421
:1004600000718161816901F400710491816941F039
:10047000040181618069694600F004000490202035
:10048000009003200190044800F07AF805B000BD08
:1004900000240140001002400008014070B50446ED
:1004A00090F8240001280DD0012084F82400204673
:1004B000FFF782FE02004FF0000005D084F8240010
:1004C000104670BD022070BDA16A40F2012399431D
:1004D00041F48071A1621F4D23681F49AB4218D1BE
:1004E0000E6816F4702F14D0A66A46F48016A66221
:1004F0000E68760505D5A66A26F4005646F48056A1
:10050000A662A66AF6040AD5E66A26F00606E66240
:1005100006E0A66A26F48016A6625E68E9E7E06255
:1005200084F824006FF00200186020688368C3F329
:100530004243072B05D1A84208D1096811F4702F56
:1005400004D0816841F480118160B9E7816841F489
:10055000A001F9E7002801400424014070B50446D9
:1005600000F008F90546601C02D0044800780444F5
:1005700000F000F9401BA042FAD370BD2C0000200F
:100580002DE9F84FDFF8B891002409F1040A0AF1C7
:10059000040B23460F270BF1040EC9E00125A540EB
:1005A0002A40AA427DD1674ED1F804C0ACEB0608C0
:1005B000B44532D014DCBCF1030F3AD009DCBCF1F5
:1005C000000F2AD0BCF1010F1CD0BCF1020F31D1B9
:1005D0001DE0BCF1110F17D0BCF1120F2AD119E0A8
:1005E000B8F5881F19D006DCB8F5803F15D0B8F5EE
:1005F000801F1FD111E0B8F5001F0ED0B8F5041F01
:1006000018D10AE0CB6815E0CB681B1D12E0CB685F
:1006100008330FE0CB680C330CE08B682BB1012B57
:100620004FF0080303D0456104E0042302E00561B4
:1006300000E00023FF2A01D8064601E000F104068D
:100640004FEA840501D9A5F12005D6F8008007FA04
:1006500005FC28EA0C0803FA05F548EA0508C6F87F
:1006600000804D68ED0062D5374DAE6946F0010659
:10067000AE61AD6924F0030605F001050095334D28
:1006800006EB050CDCF80850A607360F07FA06F84B
:1006900025EA0805DFF8B880404503D14FF000088F
:1006A00017E044E0DFF8AC80404502D14FF001088C
:1006B0000FE0DFF8A480404502D14FF0020808E0C7
:1006C000DFF89880404502D14FF0030801E04FF079
:1006D000040808FA06F848EA0508CCF808804D68CE
:1006E000D9F80060ED034D4601D5164300E096436E
:1006F0002E604D68DAF80060AD03554601D516430B
:1007000000E096432E604D68DBF80060ED025D4628
:1007100001D5164300E096432E604D68DEF8006078
:10072000AD02754601D5164300E096432E60641C69
:100730000D682A46E5407FF431AFBDE8F88F000030
:1007400000040140000011100010024000000140B0
:1007500000080140000C014000100140001401405D
:100760008068084000D0012070470AB101617047DD
:100770000904FBE701488068704700002C00002056
:100780000248816802781144816070472C00002083
:10079000074810B5016841F010010160032000F026
:1007A00067F8002000F006F800F024F8002010BDE3
:1007B0000020024070B50D4D04464FF47A71287840
:1007C000B1FBF0F00A490968B1FBF0F000F034FB2E
:1007D00048B9102C07D200222146501E00F028F8FC
:1007E00000206C6070BD012070BD00002C00002056
:1007F000380000200C4808B5816941F00101816191
:10080000816901F001010091C16941F08051C1612C
:10081000C06900F0805000900448416821F0E06118
:1008200041F00071416008BD00100240000001402D
:10083000F0B40E4B1B680C46C3F30223C3F107054B
:10084000042D00D90425191D072901D2002300E039
:10085000DB1E012606FA05F1491E214099409E4003
:10086000761E16403143F0BC00F0B0BF0CED00E046
:10087000064900F0070208684FF6FF03184040EAF7
:100880000220034A10430860704700000CED00E0AE
:100890000000FA052DE9F84305460078354CC007FD
:1008A00054D0E0690026C00008D4E06940F08050D0
:1008B000E061E069012600F0805000902E48016858
:1008C000C90512D40168804641F480710160FFF7C8
:1008D00051FF074605E000BFFFF74CFFC01B64282F
:1008E00023D8D8F80000C005F6D5206A10F440706F
:1008F00021D0A98801F4407181421CD0206A1F498F
:10090000012220F440700A6000220A602062C007C1
:1009100011D0FFF72FFF074641F2883808E000BFEB
:10092000FFF728FFC11B414502D90320BDE8F8832A
:10093000206A8007F4D5206A696820F44070084373
:1009400020621EB1E06920F08050E06128788007C5
:1009500005D56068A96820F44040084360602878A5
:10096000C00605D56068E96820F48000084360602F
:100970000020DBE7001002400070004040044242CB
:100980002DE9F0470F46050061D0434E306800F076
:100990000700B84209D2306820F0070038433060C1
:1009A000306800F00700B84251D128683B4C8107FD
:1009B00012D5400703D5606840F4E0606060287895
:1009C000000703D5606840F4605060606068A96803
:1009D00020F0F000084360602878C00728D06868DD
:1009E000012810D02168022810D0890700292EDAAA
:1009F000616821F0030101436160FFF7BBFE80469F
:100A000041F288390DE021688903EFE78901EDE7BC
:100A1000FFF7B0FEA0EB0801494502D90320BDE86D
:100A2000F0876068696800F00C00B0EB810FEFD1CF
:100A3000306800F00700B8420BD9306820F007009A
:100A400038433060306800F00700B84201D0012020
:100A5000E5E72878400705D56068E96820F4E0609C
:100A6000084360602878000706D56068296920F48B
:100A7000605040EAC100606000F018F86168084A00
:100A8000C1F30311515CC84006490860064800687C
:100A9000FFF790FE0020C2E7002002400010024055
:100AA000A01C0008380000203000002012A185B0F2
:100AB0000FC98DE80F0014A0144A00680490516813
:100AC000134801F00C03042B10D0082B0ED1C1F3F6
:100AD0008343C9031DF803000AD5516804AAC1F372
:100AE0004041515C0A4A5043B0FBF1F005B07047F9
:100AF00008494843FAE7000002030405060708090D
:100B00000A0B0C0D0E0F1010010200000010024025
:100B100000127A0000093D002DE9F84F040070D062
:100B20002078C04DC00749D06868C0F38100012813
:100B300007D06868C0F38100022809D16868C00343
:100B400006D52868800339D560680028E7D035E0ED
:100B50006068B0F5803F0BD010B1B0F5A02F11D078
:100B6000286820F480302860286820F4802002E083
:100B7000286840F480302860606890B1FFF7FAFD83
:100B800006460AE0286840F480202860F0E700BFAD
:100B9000FFF7F0FD801B642873D828688003F7D521
:100BA0000CE0FFF7E7FD064605E000BFFFF7E2FDBA
:100BB000801B6428F0D828688003F7D420789A4EE8
:100BC00080074FF001094FF0000839D5686810F030
:100BD0000C0F07D06868C0F38100022809D168684B
:100BE000C00306D42868800714D52069012808D1DD
:100BF00010E02069B0B1C6F80090FFF7BBFD0746D2
:100C000005E00AE1FFF7B6FDC01B0228C4D828683A
:100C10008007F7D52868616920F0F80040EAC10034
:100C200028600DE0C6F80080FFF7A4FD074604E049
:100C3000FFF7A0FDC01B022823D828688007F7D43F
:100C4000207800072CD57948A169D9B1C0F8009067
:100C5000FFF790FD074604E0FFF78CFDC01B02285C
:100C60000FD8686A8007F7D571484FF4FA510068C9
:100C7000B0FBF1F0009000BF0098411E0091FAD245
:100C80000EE080E0C0F80080FFF774FD074604E046
:100C9000FFF770FDC01B022875D8686A8007F7D47B
:100CA0002078400760D5E8690027C00008D4E869CB
:100CB00040F08050E861E869012700F08050009022
:100CC0005C480168C90513D40168834641F480710A
:100CD0000160FFF74FFD824606E000BFFFF74AFDC7
:100CE000A0EB0A0064284ED8DBF80000C005F5D55B
:100CF000E06801280AD008B1052813D0286A20F03E
:100D000001002862286A20F0040002E0286A40F00E
:100D100001002862E06841F2883B98B1FFF72AFDA4
:100D200082460BE0286A40F004002862EEE700BF2C
:100D3000FFF720FDA0EB0A0159455AD8286A800721
:100D4000F6D50CE0FFF716FD824605E0FFF712FD31
:100D5000A0EB0A0159454CD8286A8007F6D41FB188
:100D6000E86920F08050E861E06988B36968C1F300
:100D70008101022944D00228C6F8608004D0FFF720
:100D8000F9FC044638E034E0FFF7F4FC074604E0E1
:100D9000FFF7F0FCC01B02282BD828688001F7D48D
:100DA000206AB0F5803F05D16868A16820F4003062
:100DB00008436860D4E908010843696821F47411A4
:100DC00008436860C6F86090FFF7D4FC044606E06C
:100DD00025E000BFFFF7CEFC001B022809D82868D9
:100DE0008001F7D51BE000BFFFF7C4FC001B022801
:100DF00002D90320BDE8F88F28688001F4D40EE002
:100E00000128F7D06868226A00F48031914204D149
:100E1000616A00F47010884201D00120EAE70020E6
:100E2000E8E7000000100240000042428004424215
:100E3000380000200070004010B5401EB0F1807FE7
:100E400001D3012010BD4FF0E02460610F21601735
:100E500000F0BCFC0020A06107202061002010BD34
:100E600010B590F83C20012A22D0012280F83C20C5
:100E7000CA688C6822F4407222434C6822F4806273
:100E800022430C6822F4006222430C6922F480524F
:100E900022434C6922F400522243C969002322F400
:100EA00080420A4301684A6480F83C30002010BD4B
:100EB000022010BD70B590F83C20012A19D0012401
:100EC00000F83C4F0222427050F83C3C5A689D6842
:100ED00022F070060A684968324325F080052943EC
:100EE0005A6050F83C2C9160447000210170084613
:100EF00070BD022070BD10B5040003D094F83D0011
:100F000010B107E0012010BD002084F83C0020460D
:100F100000F00CF8022084F83D00211D206800F04C
:100F200039FB012084F83D00002010BD08B5124AAD
:100F300001681248914207D1816941F400618161E1
:100F4000806900F4006014E0B1F1804F0AD00C4ACF
:100F500091420FD1C16941F00201C161C06900F045
:100F6000020006E0C16941F00101C161C06900F001
:100F70000100009008BD0000002C0140001002405C
:100F800000040040022180F83D1001688A6802F0E8
:100F90000702062A03D00A6842F001020A60012112
:100FA00080F83D100020704770B5044690F83C0072
:100FB000012817D0012584F83C50022084F83D0018
:100FC0002068826822F0770222F47F4282600868FB
:100FD000502830D00DDC20284DD005DC98B31028E7
:100FE0003BD148E0022070BD302844D0402834D1A5
:100FF00039E0602828D0702806D0B0F5805F2CD06A
:10100000B0F5005F29D10AE0CB68D1E90121206861
:1010100000F003FB2068816841F0770109E0CB68AC
:10102000D1E90121206800F0F8FA2068816841F4D4
:101030008041816011E0CA684968206800F0A2FB25
:101040005021206807E016E0CA684968206800F06F
:10105000AAFB6021206800F0EAFA84F83D500020E5
:1010600084F83C0070BDCA684968206800F08AFBBB
:1010700040212068EFE7226801461046EBE70000B8
:1010800010B586B0002100910191029103911D4B92
:1010900002681D4902241D489A420ED18A6942F015
:1010A00004028A618969039401F0040104914FF4F8
:1010B0004071CDE9001469461FE0154B9A421ED1DC
:1010C0008A6942F004028A618A6902F00402049289
:1010D0008A6942F008028A618969039401F0080173
:1010E00004918021CDE900146946FFF749FA0120F7
:1010F000CDE90004694607480394FFF741FA06B0BA
:1011000010BD0000002C014000100240000801400A
:1011100000040040000C014070B5044690F83C000B
:101120000D4601280DD0012684F83C60022084F889
:101130003D0042B1042A18D0082A2AD00C2A4DD1E9
:1011400039E0022070BD206800F07AFA20688169D9
:1011500041F0080181612068816921F00401816109
:10116000206881692A69114311E0206800F090FA33
:101170002068816941F4006181612068816921F4FE
:1011800080618161206881692A6941EA0221816167
:1011900024E0206800F0A8FA2068C16941F0080145
:1011A000C1612068C16921F00401C1612068C16981
:1011B0002A69114311E0206800F0C2FA2068C16971
:1011C00041F40061C1612068C16921F48061C1619D
:1011D0002068C1692A6941EA0221C16184F83D6041
:1011E000002084F83C0070BD10B5040003D094F8D2
:1011F0003D0010B107E0012010BD002084F83C0044
:10120000204600F00CF8022084F83D00211D2068E3
:1012100000F0C0F9012084F83D00002010BD7047A7
:1012200010B504460068012200F0EAF90949206877
:10123000884203D1416C41F40041416420688168D7
:1012400001F00701062903D0016841F001010160A6
:10125000002010BD002C0140FEE700003EB5002438
:101260000D480094019402940A49846001600125AC
:101270000573047505614FF460214460C161FFF797
:1012800053F80520CDE90005694602940248FEF7AF
:10129000CDFF3EBD002401403C0000202DE9F0417F
:1012A00086B000242C480094019402940394816930
:1012B00041F010018161816901F01001049181699F
:1012C00041F020018161816901F02001049181696F
:1012D00041F004018161816901F004010491816997
:1012E00041F00801816180691C4F00F008004FF453
:1012F00000550490002229463846FFF736FADFF8F9
:1013000060800022F8214046FFF72FFA0095022660
:1013100001250396CDE9015469463846FFF730F9B7
:101320001820CDE9000469460E480294FFF728F919
:101330004FF470408DE8310069464046FFF720F9D0
:10134000F820CDE90005CDE9024669464046FFF7A1
:1013500017F906B0BDE8F08100100240001001400E
:10136000000C01400008014010B596B000240F9415
:1013700010941194129413941C2168461494FEF74F
:10138000D8FE202107A8FEF7D4FE21481F49C0E956
:10139000001440F21F31C0E90241046144618461DC
:1013A000FFF7A9FD4FF480500F900FA91848FFF7E1
:1013B000FBFD1748FFF718FF139413A91448149462
:1013C000FFF778FD6020CDE90004029403940494B3
:1013D0000594002269460E480694FFF79DFE0422FC
:1013E00069460B48FFF798FE0794089409944FF458
:1013F00000500A94CDE90B4007A905480E94FFF769
:101400002FFD0348FFF73CFE16B010BD002C014035
:101410006C00002010B586B000241248009401949E
:101420000294039404944FF080410594016041F6C6
:101430003F71C0E901144FF6FE71C0E903148461E5
:10144000FFF759FD4FF48050009069460548FFF7BB
:10145000ABFD049404A903480594FFF72BFD06B0E7
:1014600010BD0000AC00002010B58EB00024079421
:10147000089409940A940B941C2168460C94FEF776
:1014800058FE19481749C0E9001440F21F31C0E95D
:10149000024104618461FFF72EFD4FF480500790F4
:1014A00007A91148FFF780FD0F48FFF79DFE0B9439
:1014B0000BA90D480C94FFF7FDFC6020CDE900045A
:1014C00002940422694608480494FFF725FE082286
:1014D00069460548FFF720FE0348FFF7D1FD0EB02F
:1014E00010BD000000040040EC000020FEE7704743
:1014F00070477047FFF744B930B593B0282168466C
:10150000FEF717FE14210AA8FEF713FE002401209F
:101510000F940225049000951020119405901094CA
:10152000129407946846FFF7F7FA0F20CDE90A04F2
:101530000C940D9400210AA80E94FFF721FA0FA82D
:101540000F951194FFF7A6F913B030BD0D4801684F
:1015500041F00101016041680B4A1140416001689E
:101560000A4A11400160016821F48021016041684C
:1015700021F4FE0141604FF41F0181600449C00362
:1015800008607047001002400000FFF8FFFFF6FE01
:1015900008ED00E0F0B50268164B174C174D4FF000
:1015A0008047984205D0B84203D0A04201D0A8425B
:1015B00003D122F070064A683243984205D0B842FF
:1015C00003D0A04201D0A84203D122F44074CA68DB
:1015D00022434C6922F08002224302608A68C26280
:1015E0000A688262984201D109690163012141615F
:1015F000F0BD0000002C0140000400400008004045
:1016000010B501F01F030121046A99408C43046264
:10161000016A9A401143016210BD10B5846842EA24
:10162000032224F47F440A432243826010BD82686F
:1016300022F070020A4342F0070181607047000007
:1016400030B5026A22F001020262026A43688469CC
:1016500024F073050C682C4322F002058A682A43A3
:101660000A4DA8420BD122F00805CA6823F4407342
:101670002A434D6922F004021D438B692B434360CA
:10168000846149684163026230BD0000002C014062
:1016900030B5026A22F010020262026A436884696D
:1016A0000D6824F4E64444EA05248D6822F0200203
:1016B00042EA05120B4DA8420ED1CD6822F08002FD
:1016C00042EA05124D6923F4406343EA85038D69BC
:1016D00022F0400243EA85034360846149688163E4
:1016E000026230BD002C014030B5026A22F48072E3
:1016F0000262036A4268C46923F4007324F073052C
:101700000C682C438D6843EA05230C4DA8420ED18A
:10171000CD6823F4006343EA05234D6922F4405267
:1017200042EA05128D6923F4806342EA05124260A1
:10173000C4614968C163036230BD0000002C0140F0
:1017400030B5026A22F480520262046A4268C369B8
:101750000D6823F4E64343EA05238D6824F400541E
:1017600044EA0534064DA84204D14D6922F4804272
:1017700042EA85124260C36149680164046230BD77
:10178000002C014010B5036A046A24F001040462CD
:10179000846924F0F00444EA021423F00A020A43A4
:1017A0008461026210BD10B5036A23F01003036266
:1017B0008369046A23F4704343EA023224F0A003ED
:1017C00043EA01118261016210BDFEE70907090EBB
:1017D000002804DB00F1E02080F80014704700F0DE
:1017E0000F0000F1E02080F8141D704702E008C8E7
:1017F000121F08C1002AFAD170477047002001E08B
:1018000001C1121F002AFBD170470000FEF7C0FF84
:10181000FFF772FEFFF742FDFFF7A6FDFFF71EFD83
:10182000FFF7F8FDFFF720FE00213B48FFF7F8FC2B
:1018300004213948FFF7F4FC374804218030FFF7D2
:10184000EFFC354808218030FFF7EAFC3248403091
:10185000FFF798FB30483038FEF720FEDFF8BC80F9
:101860002D4E4FF0010940F23A2A002506F180077B
:1018700044464FF4005B00BF00F054F888F80000C5
:1018800001281ED0582806D0592807D0552808D03E
:1018900044280FD015E0C4E9015917E0C4E90195C7
:1018A00022E060881E3081B26180514509D3A4F8DE
:1018B00002A006E060881E380004000C608000D1A1
:1018C0006580606880B9A06801280DD10122594661
:1018D0001348FEF74AFF3168608848633968C86377
:1018E00030688563386885630A20FEF737FE6068D4
:1018F0000128C1D1A0680028BED10022594608485D
:10190000FEF733FF31686088886339688863306820
:1019100045633868C563AFE76C0000200000002015
:10192000001001402DE9F047DC4C002280212046C8
:10193000FEF71BFF012240212046FEF716FF012281
:1019400020212046FEF711FF012210212046FEF73C
:101950000CFF012208212046FEF707FFA61431469E
:101960002046FEF7FDFE00287ED06514294620465D
:10197000FEF7F6FE002878D06F0039462046FEF7C5
:10198000EFFE002872D04FF4004841462046FEF793
:10199000E7FE00286BD0012280212046FEF7E5FEFD
:1019A000002240212046FEF7E0FE012220212046B1
:1019B000FEF7DBFE012210212046FEF7D6FE0122B3
:1019C00008212046FEF7D1FE31462046FEF7C8FE2C
:1019D00000287DD029462046FEF7C2FE002878D098
:1019E00039462046FEF7BCFE002873D0414620460B
:1019F000FEF7B6FE00286ED0012280212046FEF7B9
:101A0000B4FE012240212046FEF7AFFE0022202135
:101A10002046FEF7AAFE012210212046FEF7A5FE71
:101A2000012208212046FEF7A0FE31462046FEF79F
:101A300097FE00287ED029462046FEF791FE00281A
:101A400079D039462046FEF78BFE002874D0C14677
:101A500041462046FEF784FE00286ED001228021F8
:101A60002046FEF782FE03E075E07CE083E08CE038
:101A7000012240212046FEF778FE01222021204647
:101A8000FEF773FE002210212046FEF76EFE0122B3
:101A900008212046FEF769FE31462046FEF760FE2B
:101AA000002870D029462046FEF75AFE00286BD049
:101AB000B84639462046FEF753FE002876D04F46FA
:101AC00049462046FEF74CFE002870D0012203E074
:101AD00064E06DE074E07BE080212046FEF745FE87
:101AE000012240212046FEF740FE0122202120460F
:101AF000FEF73BFE012210212046FEF736FE0022B3
:101B000008212046FEF731FE31462046FEF728FE2A
:101B100000286ED029462046FEF722FE002869D014
:101B2000454641462046FEF71BFE002873D0394645
:101B3000204603E055E05EE065E06DE0FEF710FE54
:101B4000002806D139462046FEF70AFE0028F9D0C3
:101B50004E20BDE8F08731462046FEF701FE002802
:101B6000F9D05820F5E729462046FEF7F9FD002870
:101B7000F9D05920EDE739462046FEF7F1FD00285F
:101B8000F9D02320E5E750E057E0454629462046B6
:101B9000FEF7E6FD0028F9D02A20DAE73146204694
:101BA000FEF7DEFD0028F9D03120D2E74DE055E008
:101BB00029462046FEF7D4FD0028F9D03220C8E798
:101BC00039462046FEF7CCFD0028F9D03320C0E787
:101BD000454629462046FEF7C3FD0028F9D055208A
:101BE000B7E731462046FEF7BBFD0028F9D0342088
:101BF000AFE73BE042E029462046FEF7B1FD002872
:101C0000F9D03520A5E739462046FEF7A9FD002882
:101C1000F9D036209DE739E04D4629462046FEF7AB
:101C20009FFD0028F9D0442093E731462046FEF777
:101C300097FD0028F9D037208BE729462046FEF78C
:101C40008FFD0028F9D0382083E7454629462046F5
:101C5000FEF786FD0028F9D039207AE7394620467C
:101C6000FEF77EFD0028F9D0532072E7314620466A
:101C7000FEF776FD0028F9D04C206AE72946204679
:101C8000FEF76EFD0028F9D0302062E72946204695
:101C9000FEF766FD0028F9D052205AE7000C0140FB
:101CA000000000000000000001020304060708090C
:101CB000D01C0008000000203C000000EC170008C9
:101CC0000C1D00083C000020F4040000FC17000874
:101CD0000000000000000000000000000000000004
:101CE000000000000000000000000000022B873D03
:101CF0003333D33F0000000000000000010000006B
:0C1D000010000000000000000024F400AF
:04000005080000ED02
:00000001FF
